{
  "contractName": "Fundraising",
  "abi": [
    {
      "anonymous": false,
      "inputs": [
        {
          "indexed": true,
          "internalType": "uint256",
          "name": "fundraiseId",
          "type": "uint256"
        },
        {
          "indexed": true,
          "internalType": "address",
          "name": "newBeneficiary",
          "type": "address"
        }
      ],
      "name": "BeneficiaryChanged",
      "type": "event"
    },
    {
      "anonymous": false,
      "inputs": [
        {
          "indexed": true,
          "internalType": "address",
          "name": "donator",
          "type": "address"
        },
        {
          "indexed": true,
          "internalType": "uint256",
          "name": "fundraiseId",
          "type": "uint256"
        },
        {
          "indexed": false,
          "internalType": "uint256",
          "name": "donationAmount",
          "type": "uint256"
        }
      ],
      "name": "Donation",
      "type": "event"
    },
    {
      "anonymous": false,
      "inputs": [
        {
          "indexed": true,
          "internalType": "uint256",
          "name": "fundraiseId",
          "type": "uint256"
        },
        {
          "indexed": true,
          "internalType": "address",
          "name": "claimer",
          "type": "address"
        },
        {
          "indexed": false,
          "internalType": "uint256",
          "name": "claimAmount",
          "type": "uint256"
        }
      ],
      "name": "DonationClaimed",
      "type": "event"
    },
    {
      "anonymous": false,
      "inputs": [
        {
          "indexed": true,
          "internalType": "uint256",
          "name": "fundraiseId",
          "type": "uint256"
        },
        {
          "indexed": true,
          "internalType": "address",
          "name": "beneficiary",
          "type": "address"
        }
      ],
      "name": "FundraiseComplete",
      "type": "event"
    },
    {
      "anonymous": false,
      "inputs": [
        {
          "indexed": true,
          "internalType": "address",
          "name": "fundraiser",
          "type": "address"
        },
        {
          "indexed": true,
          "internalType": "address",
          "name": "beneficiary",
          "type": "address"
        },
        {
          "indexed": false,
          "internalType": "uint256",
          "name": "fundraiseGoal",
          "type": "uint256"
        },
        {
          "indexed": false,
          "internalType": "uint256",
          "name": "fundraiseDeadline",
          "type": "uint256"
        },
        {
          "indexed": true,
          "internalType": "uint256",
          "name": "fundraiseId",
          "type": "uint256"
        },
        {
          "indexed": false,
          "internalType": "string",
          "name": "fundraiseAgenda",
          "type": "string"
        }
      ],
      "name": "FundraiseCreated",
      "type": "event"
    },
    {
      "inputs": [
        {
          "internalType": "uint256",
          "name": "fundraiseId",
          "type": "uint256"
        }
      ],
      "name": "getFundraise",
      "outputs": [
        {
          "components": [
            {
              "internalType": "address",
              "name": "fundraiser",
              "type": "address"
            },
            {
              "internalType": "address",
              "name": "beneficiary",
              "type": "address"
            },
            {
              "internalType": "uint256",
              "name": "fundraiseGoal",
              "type": "uint256"
            },
            {
              "internalType": "uint256",
              "name": "fundraiseStartTime",
              "type": "uint256"
            },
            {
              "internalType": "uint256",
              "name": "fundraiseDeadline",
              "type": "uint256"
            },
            {
              "internalType": "string",
              "name": "fundraiseAgenda",
              "type": "string"
            },
            {
              "internalType": "uint256",
              "name": "amountFunded",
              "type": "uint256"
            }
          ],
          "internalType": "struct Fundraising.Fundraise",
          "name": "",
          "type": "tuple"
        }
      ],
      "stateMutability": "view",
      "type": "function",
      "constant": true
    },
    {
      "inputs": [
        {
          "internalType": "uint256",
          "name": "fundraiseId",
          "type": "uint256"
        }
      ],
      "name": "donate",
      "outputs": [],
      "stateMutability": "payable",
      "type": "function",
      "payable": true
    },
    {
      "inputs": [
        {
          "internalType": "address",
          "name": "beneficiary",
          "type": "address"
        },
        {
          "internalType": "uint256",
          "name": "fundraiseGoal",
          "type": "uint256"
        },
        {
          "internalType": "string",
          "name": "fundraiseAgenda",
          "type": "string"
        },
        {
          "internalType": "uint256",
          "name": "fundraiseDeadline",
          "type": "uint256"
        }
      ],
      "name": "createFundraise",
      "outputs": [],
      "stateMutability": "nonpayable",
      "type": "function"
    },
    {
      "inputs": [
        {
          "internalType": "uint256",
          "name": "fundraiseId",
          "type": "uint256"
        }
      ],
      "name": "getBeneficiary",
      "outputs": [
        {
          "internalType": "address",
          "name": "",
          "type": "address"
        }
      ],
      "stateMutability": "view",
      "type": "function",
      "constant": true
    },
    {
      "inputs": [
        {
          "internalType": "uint256",
          "name": "fundraiseId",
          "type": "uint256"
        },
        {
          "internalType": "address",
          "name": "newBeneficiary",
          "type": "address"
        }
      ],
      "name": "setBeneficiary",
      "outputs": [],
      "stateMutability": "nonpayable",
      "type": "function"
    },
    {
      "inputs": [
        {
          "internalType": "uint256",
          "name": "fundraiseId",
          "type": "uint256"
        }
      ],
      "name": "getDonationAmount",
      "outputs": [
        {
          "internalType": "uint256",
          "name": "",
          "type": "uint256"
        }
      ],
      "stateMutability": "view",
      "type": "function",
      "constant": true
    },
    {
      "inputs": [
        {
          "internalType": "uint256",
          "name": "fundraiseId",
          "type": "uint256"
        }
      ],
      "name": "claimFundraised",
      "outputs": [],
      "stateMutability": "nonpayable",
      "type": "function"
    },
    {
      "inputs": [
        {
          "internalType": "uint256",
          "name": "fundraiseId",
          "type": "uint256"
        }
      ],
      "name": "claimDonation",
      "outputs": [],
      "stateMutability": "nonpayable",
      "type": "function"
    },
    {
      "inputs": [
        {
          "internalType": "uint256",
          "name": "fundraiseId",
          "type": "uint256"
        }
      ],
      "name": "getAmountFunded",
      "outputs": [
        {
          "internalType": "uint256",
          "name": "",
          "type": "uint256"
        }
      ],
      "stateMutability": "view",
      "type": "function",
      "constant": true
    },
    {
      "inputs": [
        {
          "internalType": "address",
          "name": "fundraiser",
          "type": "address"
        }
      ],
      "name": "getFundraises",
      "outputs": [
        {
          "internalType": "uint256[]",
          "name": "",
          "type": "uint256[]"
        }
      ],
      "stateMutability": "view",
      "type": "function",
      "constant": true
    },
    {
      "inputs": [
        {
          "internalType": "address",
          "name": "donator",
          "type": "address"
        }
      ],
      "name": "getDonations",
      "outputs": [
        {
          "internalType": "uint256[]",
          "name": "",
          "type": "uint256[]"
        }
      ],
      "stateMutability": "view",
      "type": "function",
      "constant": true
    }
  ],
  "bytecode": "0x608060405234801561001057600080fd5b5061283d806100206000396000f3fe60806040526004361061009c5760003560e01c806399ad848c1161006457806399ad848c146101aa5780639ac466ec146101e7578063affb2c8414610224578063ef8402461461024d578063f14faf6f14610276578063f4021082146102925761009c565b80630c79186c146100a15780631910bdc2146100de5780631c846d591461011b578063302df083146101445780636e375ff114610181575b600080fd5b3480156100ad57600080fd5b506100c860048036038101906100c39190611e3f565b6102cf565b6040516100d591906122db565b60405180910390f35b3480156100ea57600080fd5b5061010560048036038101906101009190611d9b565b610329565b6040516101129190612197565b60405180910390f35b34801561012757600080fd5b50610142600480360381019061013d9190611e68565b6103c0565b005b34801561015057600080fd5b5061016b60048036038101906101669190611e3f565b6106c8565b604051610178919061217c565b60405180910390f35b34801561018d57600080fd5b506101a860048036038101906101a39190611e3f565b610893565b005b3480156101b657600080fd5b506101d160048036038101906101cc9190611e3f565b610e6f565b6040516101de91906122db565b60405180910390f35b3480156101f357600080fd5b5061020e60048036038101906102099190611d9b565b61103a565b60405161021b9190612197565b60405180910390f35b34801561023057600080fd5b5061024b60048036038101906102469190611e3f565b6110d1565b005b34801561025957600080fd5b50610274600480360381019061026f9190611dc4565b611526565b005b610290600480360381019061028b9190611e3f565b611779565b005b34801561029e57600080fd5b506102b960048036038101906102b49190611e3f565b611a09565b6040516102c691906122b9565b60405180910390f35b60006003600083815260200190815260200160002060003373ffffffffffffffffffffffffffffffffffffffff1673ffffffffffffffffffffffffffffffffffffffff168152602001908152602001600020549050919050565b6060600260008373ffffffffffffffffffffffffffffffffffffffff1673ffffffffffffffffffffffffffffffffffffffff1681526020019081526020016000208054806020026020016040519081016040528092919081815260200182805480156103b457602002820191906000526020600020905b8154815260200190600101908083116103a0575b50505050509050919050565b8160008082815481106103fc577f4e487b7100000000000000000000000000000000000000000000000000000000600052603260045260246000fd5b90600052602060002090600702016040518060e00160405290816000820160009054906101000a900473ffffffffffffffffffffffffffffffffffffffff1673ffffffffffffffffffffffffffffffffffffffff1673ffffffffffffffffffffffffffffffffffffffff1681526020016001820160009054906101000a900473ffffffffffffffffffffffffffffffffffffffff1673ffffffffffffffffffffffffffffffffffffffff1673ffffffffffffffffffffffffffffffffffffffff1681526020016002820154815260200160038201548152602001600482015481526020016005820180546104ef906124f8565b80601f016020809104026020016040519081016040528092919081815260200182805461051b906124f8565b80156105685780601f1061053d57610100808354040283529160200191610568565b820191906000526020600020905b81548152906001019060200180831161054b57829003601f168201915b505050505081526020016006820154815250509050806000015173ffffffffffffffffffffffffffffffffffffffff163373ffffffffffffffffffffffffffffffffffffffff16146105ef576040517f08c379a00000000000000000000000000000000000000000000000000000000081526004016105e6906121d9565b60405180910390fd5b600080858154811061062a577f4e487b7100000000000000000000000000000000000000000000000000000000600052603260045260246000fd5b90600052602060002090600702019050838160010160006101000a81548173ffffffffffffffffffffffffffffffffffffffff021916908373ffffffffffffffffffffffffffffffffffffffff1602179055508373ffffffffffffffffffffffffffffffffffffffff16857f26ea2a161ddcbeedea521e00f5abbc305ad59a6476583da961131b211d84f7ee60405160405180910390a35050505050565b60008060008381548110610705577f4e487b7100000000000000000000000000000000000000000000000000000000600052603260045260246000fd5b90600052602060002090600702016040518060e00160405290816000820160009054906101000a900473ffffffffffffffffffffffffffffffffffffffff1673ffffffffffffffffffffffffffffffffffffffff1673ffffffffffffffffffffffffffffffffffffffff1681526020016001820160009054906101000a900473ffffffffffffffffffffffffffffffffffffffff1673ffffffffffffffffffffffffffffffffffffffff1673ffffffffffffffffffffffffffffffffffffffff1681526020016002820154815260200160038201548152602001600482015481526020016005820180546107f8906124f8565b80601f0160208091040260200160405190810160405280929190818152602001828054610824906124f8565b80156108715780601f1061084657610100808354040283529160200191610871565b820191906000526020600020905b81548152906001019060200180831161085457829003601f168201915b5050505050815260200160068201548152505090508060200151915050919050565b8060008082815481106108cf577f4e487b7100000000000000000000000000000000000000000000000000000000600052603260045260246000fd5b90600052602060002090600702016040518060e00160405290816000820160009054906101000a900473ffffffffffffffffffffffffffffffffffffffff1673ffffffffffffffffffffffffffffffffffffffff1673ffffffffffffffffffffffffffffffffffffffff1681526020016001820160009054906101000a900473ffffffffffffffffffffffffffffffffffffffff1673ffffffffffffffffffffffffffffffffffffffff1673ffffffffffffffffffffffffffffffffffffffff1681526020016002820154815260200160038201548152602001600482015481526020016005820180546109c2906124f8565b80601f01602080910402602001604051908101604052809291908181526020018280546109ee906124f8565b8015610a3b5780601f10610a1057610100808354040283529160200191610a3b565b820191906000526020600020905b815481529060010190602001808311610a1e57829003601f168201915b505050505081526020016006820154815250509050806020015173ffffffffffffffffffffffffffffffffffffffff163373ffffffffffffffffffffffffffffffffffffffff1614610ac2576040517f08c379a0000000000000000000000000000000000000000000000000000000008152600401610ab9906121f9565b60405180910390fd5b826000808281548110610afe577f4e487b7100000000000000000000000000000000000000000000000000000000600052603260045260246000fd5b90600052602060002090600702016040518060e00160405290816000820160009054906101000a900473ffffffffffffffffffffffffffffffffffffffff1673ffffffffffffffffffffffffffffffffffffffff1673ffffffffffffffffffffffffffffffffffffffff1681526020016001820160009054906101000a900473ffffffffffffffffffffffffffffffffffffffff1673ffffffffffffffffffffffffffffffffffffffff1673ffffffffffffffffffffffffffffffffffffffff168152602001600282015481526020016003820154815260200160048201548152602001600582018054610bf1906124f8565b80601f0160208091040260200160405190810160405280929190818152602001828054610c1d906124f8565b8015610c6a5780601f10610c3f57610100808354040283529160200191610c6a565b820191906000526020600020905b815481529060010190602001808311610c4d57829003601f168201915b50505050508152602001600682015481525050905080608001514211610cc5576040517f08c379a0000000000000000000000000000000000000000000000000000000008152600401610cbc906121b9565b60405180910390fd5b6000808681548110610d00577f4e487b7100000000000000000000000000000000000000000000000000000000600052603260045260246000fd5b906000526020600020906007020190506000610d2d82600601548360020154611bd190919063ffffffff16565b14610d6d576040517f08c379a0000000000000000000000000000000000000000000000000000000008152600401610d6490612259565b60405180910390fd5b8060010160009054906101000a900473ffffffffffffffffffffffffffffffffffffffff1673ffffffffffffffffffffffffffffffffffffffff166108fc82600201549081150290604051600060405180830381858888f19350505050158015610ddb573d6000803e3d6000fd5b50610df781600601548260020154611bd190919063ffffffff16565b81600201819055508060010160009054906101000a900473ffffffffffffffffffffffffffffffffffffffff1673ffffffffffffffffffffffffffffffffffffffff16867f5b95db47c015815a49ba3004d12e50bd491a2e0cb5f4dee5956d4f57464cbcda60405160405180910390a3505050505050565b60008060008381548110610eac577f4e487b7100000000000000000000000000000000000000000000000000000000600052603260045260246000fd5b90600052602060002090600702016040518060e00160405290816000820160009054906101000a900473ffffffffffffffffffffffffffffffffffffffff1673ffffffffffffffffffffffffffffffffffffffff1673ffffffffffffffffffffffffffffffffffffffff1681526020016001820160009054906101000a900473ffffffffffffffffffffffffffffffffffffffff1673ffffffffffffffffffffffffffffffffffffffff1673ffffffffffffffffffffffffffffffffffffffff168152602001600282015481526020016003820154815260200160048201548152602001600582018054610f9f906124f8565b80601f0160208091040260200160405190810160405280929190818152602001828054610fcb906124f8565b80156110185780601f10610fed57610100808354040283529160200191611018565b820191906000526020600020905b815481529060010190602001808311610ffb57829003601f168201915b5050505050815260200160068201548152505090508060c00151915050919050565b6060600160008373ffffffffffffffffffffffffffffffffffffffff1673ffffffffffffffffffffffffffffffffffffffff1681526020019081526020016000208054806020026020016040519081016040528092919081815260200182805480156110c557602002820191906000526020600020905b8154815260200190600101908083116110b1575b50505050509050919050565b80600080828154811061110d577f4e487b7100000000000000000000000000000000000000000000000000000000600052603260045260246000fd5b90600052602060002090600702016040518060e00160405290816000820160009054906101000a900473ffffffffffffffffffffffffffffffffffffffff1673ffffffffffffffffffffffffffffffffffffffff1673ffffffffffffffffffffffffffffffffffffffff1681526020016001820160009054906101000a900473ffffffffffffffffffffffffffffffffffffffff1673ffffffffffffffffffffffffffffffffffffffff1673ffffffffffffffffffffffffffffffffffffffff168152602001600282015481526020016003820154815260200160048201548152602001600582018054611200906124f8565b80601f016020809104026020016040519081016040528092919081815260200182805461122c906124f8565b80156112795780601f1061124e57610100808354040283529160200191611279565b820191906000526020600020905b81548152906001019060200180831161125c57829003601f168201915b505050505081526020016006820154815250509050806080015142116112d4576040517f08c379a00000000000000000000000000000000000000000000000000000000081526004016112cb906121b9565b60405180910390fd5b600080848154811061130f577f4e487b7100000000000000000000000000000000000000000000000000000000600052603260045260246000fd5b9060005260206000209060070201905060006003600086815260200190815260200160002060003373ffffffffffffffffffffffffffffffffffffffff1673ffffffffffffffffffffffffffffffffffffffff168152602001908152602001600020549050600081116113b7576040517f08c379a00000000000000000000000000000000000000000000000000000000081526004016113ae90612299565b60405180910390fd5b60006113d483600601548460020154611bd190919063ffffffff16565b11611414576040517f08c379a000000000000000000000000000000000000000000000000000000000815260040161140b90612239565b60405180910390fd5b3373ffffffffffffffffffffffffffffffffffffffff166108fc829081150290604051600060405180830381858888f1935050505015801561145a573d6000803e3d6000fd5b50611472818360060154611bd190919063ffffffff16565b826006018190555060006003600087815260200190815260200160002060003373ffffffffffffffffffffffffffffffffffffffff1673ffffffffffffffffffffffffffffffffffffffff168152602001908152602001600020819055503373ffffffffffffffffffffffffffffffffffffffff16857f678fc2954f2b0c251b737057e6c733db5a6db07a96f178640b8e194e6480e9ac8360405161151791906122db565b60405180910390a35050505050565b60006040518060e001604052803373ffffffffffffffffffffffffffffffffffffffff1681526020018673ffffffffffffffffffffffffffffffffffffffff16815260200185815260200142815260200183815260200184815260200160008152509050600081908060018154018082558091505060019003906000526020600020906007020160009091909190915060008201518160000160006101000a81548173ffffffffffffffffffffffffffffffffffffffff021916908373ffffffffffffffffffffffffffffffffffffffff16021790555060208201518160010160006101000a81548173ffffffffffffffffffffffffffffffffffffffff021916908373ffffffffffffffffffffffffffffffffffffffff16021790555060408201518160020155606082015181600301556080820151816004015560a082015181600501908051906020019061167e929190611bfd565b5060c0820151816006015550506000600160008054905061169f9190612446565b9050600160003373ffffffffffffffffffffffffffffffffffffffff1673ffffffffffffffffffffffffffffffffffffffff168152602001908152602001600020819080600181540180825580915050600190039060005260206000200160009091909190915055808673ffffffffffffffffffffffffffffffffffffffff163373ffffffffffffffffffffffffffffffffffffffff167ff03a206c3d84a0671779fcc4dfc8e8780ddba5e197dd03a2f75b9bf3e835cc4d888789604051611769939291906122f6565b60405180910390a4505050505050565b60008082815481106117b4577f4e487b7100000000000000000000000000000000000000000000000000000000600052603260045260246000fd5b906000526020600020906007020190504281600401541161180a576040517f08c379a000000000000000000000000000000000000000000000000000000000815260040161180190612279565b60405180910390fd5b60006118393461182b84600601548560020154611bd190919063ffffffff16565b611bd190919063ffffffff16565b101561187a576040517f08c379a000000000000000000000000000000000000000000000000000000000815260040161187190612219565b60405180910390fd5b611891348260060154611be790919063ffffffff16565b81600601819055506118fc346003600085815260200190815260200160002060003373ffffffffffffffffffffffffffffffffffffffff1673ffffffffffffffffffffffffffffffffffffffff16815260200190815260200160002054611be790919063ffffffff16565b6003600084815260200190815260200160002060003373ffffffffffffffffffffffffffffffffffffffff1673ffffffffffffffffffffffffffffffffffffffff16815260200190815260200160002081905550600260003373ffffffffffffffffffffffffffffffffffffffff1673ffffffffffffffffffffffffffffffffffffffff168152602001908152602001600020829080600181540180825580915050600190039060005260206000200160009091909190915055813373ffffffffffffffffffffffffffffffffffffffff167f106aac375bbcf013d1e52338bbf9e740009a1a3a6869f8daa1b72aa1620f5fec346040516119fd91906122db565b60405180910390a35050565b611a11611c83565b60008281548110611a4b577f4e487b7100000000000000000000000000000000000000000000000000000000600052603260045260246000fd5b90600052602060002090600702016040518060e00160405290816000820160009054906101000a900473ffffffffffffffffffffffffffffffffffffffff1673ffffffffffffffffffffffffffffffffffffffff1673ffffffffffffffffffffffffffffffffffffffff1681526020016001820160009054906101000a900473ffffffffffffffffffffffffffffffffffffffff1673ffffffffffffffffffffffffffffffffffffffff1673ffffffffffffffffffffffffffffffffffffffff168152602001600282015481526020016003820154815260200160048201548152602001600582018054611b3e906124f8565b80601f0160208091040260200160405190810160405280929190818152602001828054611b6a906124f8565b8015611bb75780601f10611b8c57610100808354040283529160200191611bb7565b820191906000526020600020905b815481529060010190602001808311611b9a57829003601f168201915b505050505081526020016006820154815250509050919050565b60008183611bdf9190612446565b905092915050565b60008183611bf591906123f0565b905092915050565b828054611c09906124f8565b90600052602060002090601f016020900481019282611c2b5760008555611c72565b82601f10611c4457805160ff1916838001178555611c72565b82800160010185558215611c72579182015b82811115611c71578251825591602001919060010190611c56565b5b509050611c7f9190611cec565b5090565b6040518060e00160405280600073ffffffffffffffffffffffffffffffffffffffff168152602001600073ffffffffffffffffffffffffffffffffffffffff16815260200160008152602001600081526020016000815260200160608152602001600081525090565b5b80821115611d05576000816000905550600101611ced565b5090565b6000611d1c611d1784612359565b612334565b905082815260208101848484011115611d3457600080fd5b611d3f8482856124b6565b509392505050565b600081359050611d56816127d9565b92915050565b600082601f830112611d6d57600080fd5b8135611d7d848260208601611d09565b91505092915050565b600081359050611d95816127f0565b92915050565b600060208284031215611dad57600080fd5b6000611dbb84828501611d47565b91505092915050565b60008060008060808587031215611dda57600080fd5b6000611de887828801611d47565b9450506020611df987828801611d86565b935050604085013567ffffffffffffffff811115611e1657600080fd5b611e2287828801611d5c565b9250506060611e3387828801611d86565b91505092959194509250565b600060208284031215611e5157600080fd5b6000611e5f84828501611d86565b91505092915050565b60008060408385031215611e7b57600080fd5b6000611e8985828601611d86565b9250506020611e9a85828601611d47565b9150509250929050565b6000611eb0838361215e565b60208301905092915050565b611ec58161247a565b82525050565b611ed48161247a565b82525050565b6000611ee58261239a565b611eef81856123bd565b9350611efa8361238a565b8060005b83811015611f2b578151611f128882611ea4565b9750611f1d836123b0565b925050600181019050611efe565b5085935050505092915050565b6000611f43826123a5565b611f4d81856123ce565b9350611f5d8185602086016124c5565b611f66816125e8565b840191505092915050565b6000611f7c826123a5565b611f8681856123df565b9350611f968185602086016124c5565b611f9f816125e8565b840191505092915050565b6000611fb7601a836123df565b9150611fc2826125f9565b602082019050919050565b6000611fda601a836123df565b9150611fe582612622565b602082019050919050565b6000611ffd601b836123df565b91506120088261264b565b602082019050919050565b60006120206030836123df565b915061202b82612674565b604082019050919050565b6000612043602d836123df565b915061204e826126c3565b604082019050919050565b6000612066602a836123df565b915061207182612712565b604082019050919050565b6000612089602c836123df565b915061209482612761565b604082019050919050565b60006120ac6010836123df565b91506120b7826127b0565b602082019050919050565b600060e0830160008301516120da6000860182611ebc565b5060208301516120ed6020860182611ebc565b506040830151612100604086018261215e565b506060830151612113606086018261215e565b506080830151612126608086018261215e565b5060a083015184820360a086015261213e8282611f38565b91505060c083015161215360c086018261215e565b508091505092915050565b612167816124ac565b82525050565b612176816124ac565b82525050565b60006020820190506121916000830184611ecb565b92915050565b600060208201905081810360008301526121b18184611eda565b905092915050565b600060208201905081810360008301526121d281611faa565b9050919050565b600060208201905081810360008301526121f281611fcd565b9050919050565b6000602082019050818103600083015261221281611ff0565b9050919050565b6000602082019050818103600083015261223281612013565b9050919050565b6000602082019050818103600083015261225281612036565b9050919050565b6000602082019050818103600083015261227281612059565b9050919050565b600060208201905081810360008301526122928161207c565b9050919050565b600060208201905081810360008301526122b28161209f565b9050919050565b600060208201905081810360008301526122d381846120c2565b905092915050565b60006020820190506122f0600083018461216d565b92915050565b600060608201905061230b600083018661216d565b612318602083018561216d565b818103604083015261232a8184611f71565b9050949350505050565b600061233e61234f565b905061234a828261252a565b919050565b6000604051905090565b600067ffffffffffffffff821115612374576123736125b9565b5b61237d826125e8565b9050602081019050919050565b6000819050602082019050919050565b600081519050919050565b600081519050919050565b6000602082019050919050565b600082825260208201905092915050565b600082825260208201905092915050565b600082825260208201905092915050565b60006123fb826124ac565b9150612406836124ac565b9250827fffffffffffffffffffffffffffffffffffffffffffffffffffffffffffffffff0382111561243b5761243a61255b565b5b828201905092915050565b6000612451826124ac565b915061245c836124ac565b92508282101561246f5761246e61255b565b5b828203905092915050565b60006124858261248c565b9050919050565b600073ffffffffffffffffffffffffffffffffffffffff82169050919050565b6000819050919050565b82818337600083830152505050565b60005b838110156124e35780820151818401526020810190506124c8565b838111156124f2576000848401525b50505050565b6000600282049050600182168061251057607f821691505b602082108114156125245761252361258a565b5b50919050565b612533826125e8565b810181811067ffffffffffffffff82111715612552576125516125b9565b5b80604052505050565b7f4e487b7100000000000000000000000000000000000000000000000000000000600052601160045260246000fd5b7f4e487b7100000000000000000000000000000000000000000000000000000000600052602260045260246000fd5b7f4e487b7100000000000000000000000000000000000000000000000000000000600052604160045260246000fd5b6000601f19601f8301169050919050565b7f46756e647261697365206973207374696c6c206f6e676f696e67000000000000600082015250565b7f4f6e6c792046756e6472616973657220697320616c6c6f776564000000000000600082015250565b7f4f6e6c792062656e656669636961727920697320616c6c6f7765640000000000600082015250565b7f46756e64726169736520697320636f6d706c657465206e6f206d6f726520646f60008201527f6e6174696f6e7320616363657074656400000000000000000000000000000000602082015250565b7f46756e64726169736520776173206120737563636573732063616e6e6f74206360008201527f6c61696d20646f6e6174696f6e00000000000000000000000000000000000000602082015250565b7f46756e647261697365207761732061206661696c7572652063616e6e6f74206360008201527f6c61696d2066756e647300000000000000000000000000000000000000000000602082015250565b7f46756e647261697365206973206e6f7420616363657074696e6720616e796d6f60008201527f726520646f6e6174696f6e730000000000000000000000000000000000000000602082015250565b7f4e6f20446f6e6174696f6e206d61646500000000000000000000000000000000600082015250565b6127e28161247a565b81146127ed57600080fd5b50565b6127f9816124ac565b811461280457600080fd5b5056fea26469706673582212209713eb2536d4d8036b7ab505fef4307fbf566b64fe209689b4474f1ebeaf1eef64736f6c63430008010033",
  "immutableReferences": {},
  "source": "// SPDX-License-Identifier: MIT\npragma solidity >=0.4.22 <0.9.0;\npragma experimental ABIEncoderV2;\n\nimport \"@openzeppelin/contracts/utils/math/SafeMath.sol\";\n\n\n\ncontract Fundraising {\n    using SafeMath for uint256;\n\n    struct Fundraise {\n        address fundraiser;\n        address beneficiary;\n        uint256 fundraiseGoal;\n        uint256 fundraiseStartTime;\n        uint256 fundraiseDeadline;\n        string fundraiseAgenda;\n        uint256 amountFunded;\n    }\n\n    event Donation(address indexed donator, uint256 indexed fundraiseId, uint256 donationAmount);\n    event FundraiseCreated(address indexed fundraiser, address indexed beneficiary, uint256 fundraiseGoal, uint256 fundraiseDeadline, uint256 indexed fundraiseId, string fundraiseAgenda);\n    event BeneficiaryChanged(uint256 indexed fundraiseId, address indexed newBeneficiary);\n    event FundraiseComplete(uint256 indexed fundraiseId, address indexed beneficiary);\n    event DonationClaimed(uint256 indexed fundraiseId, address indexed claimer, uint256 claimAmount);\n\n    Fundraise[] allFundraises;\n\n    mapping(address => uint256[]) fundraiserToFundraise;\n    mapping(address => uint256[]) donatorToFundraise;\n    mapping(uint256 => mapping(address => uint256)) donatorToDonation;\n\n    function getFundraise(uint256 fundraiseId) external view returns(Fundraise memory) {\n        return allFundraises[fundraiseId];\n    }\n\n    modifier onlyFundraiser(uint256 fundraiseId) {\n        Fundraise memory fundraise = allFundraises[fundraiseId];\n        require(msg.sender == fundraise.fundraiser, \"Only Fundraiser is allowed\");\n        _;\n    }\n\n    modifier onlyBeneficiary(uint256 fundraiseId) {\n        Fundraise memory fundraise = allFundraises[fundraiseId];\n        require(msg.sender == fundraise.beneficiary, \"Only beneficiary is allowed\");\n        _;\n    }\n\n    modifier afterDeadline(uint256 fundraiseId) {\n        Fundraise memory fundraise = allFundraises[fundraiseId];\n        require(block.timestamp > fundraise.fundraiseDeadline, \"Fundraise is still ongoing\");\n        _;\n    }\n\n    function donate(uint256 fundraiseId) external payable {\n        Fundraise storage fundraise = allFundraises[fundraiseId];\n        require(fundraise.fundraiseDeadline > block.timestamp, \"Fundraise is not accepting anymore donations\");        \n        require(fundraise.fundraiseGoal.sub(fundraise.amountFunded).sub(msg.value) >= 0, \"Fundraise is complete no more donations accepted\");\n        fundraise.amountFunded = fundraise.amountFunded.add(msg.value); // increase amountFunded to Donation\n        donatorToDonation[fundraiseId][msg.sender] = donatorToDonation[fundraiseId][msg.sender].add(msg.value);\n        donatorToFundraise[msg.sender].push(fundraiseId); // if a person donates 2 times then 2 id's are added.\n        emit Donation(msg.sender, fundraiseId, msg.value);\n    }\n\n    function createFundraise(address beneficiary, uint256 fundraiseGoal, string memory fundraiseAgenda, uint256 fundraiseDeadline) external {\n        Fundraise memory fundraise = Fundraise(msg.sender, beneficiary, fundraiseGoal, block.timestamp, fundraiseDeadline, fundraiseAgenda, 0);\n        allFundraises.push(fundraise);\n        uint256 fundraiseId = allFundraises.length - 1;\n        fundraiserToFundraise[msg.sender].push(fundraiseId);\n        emit FundraiseCreated(msg.sender, beneficiary, fundraiseGoal, fundraiseDeadline, fundraiseId, fundraiseAgenda);\n    } \n\n    function getBeneficiary(uint256 fundraiseId) external view returns(address) {\n        Fundraise memory fundraise = allFundraises[fundraiseId];\n        return fundraise.beneficiary;\n    }\n\n    function setBeneficiary(uint256 fundraiseId, address newBeneficiary) onlyFundraiser(fundraiseId) external {\n        Fundraise storage fundraise = allFundraises[fundraiseId];\n        fundraise.beneficiary = newBeneficiary;\n        emit BeneficiaryChanged(fundraiseId, newBeneficiary);\n    }\n\n    function getDonationAmount(uint256 fundraiseId) external view returns(uint256) {\n        return donatorToDonation[fundraiseId][msg.sender];\n    }\n\n    function claimFundraised(uint256 fundraiseId) onlyBeneficiary(fundraiseId) afterDeadline(fundraiseId) external {\n        Fundraise storage fundraise = allFundraises[fundraiseId];\n        require(fundraise.fundraiseGoal.sub(fundraise.amountFunded) == 0, \"Fundraise was a failure cannot claim funds\");\n        payable(fundraise.beneficiary).transfer(fundraise.fundraiseGoal);\n        fundraise.fundraiseGoal = fundraise.fundraiseGoal.sub(fundraise.amountFunded);\n        emit FundraiseComplete(fundraiseId, fundraise.beneficiary);\n    }\n\n    function claimDonation(uint256 fundraiseId) afterDeadline(fundraiseId) external {\n        Fundraise storage fundraise = allFundraises[fundraiseId];\n        uint256 donationAmount = donatorToDonation[fundraiseId][msg.sender];\n        require(donationAmount > 0, \"No Donation made\");\n        require(fundraise.fundraiseGoal.sub(fundraise.amountFunded) > 0, \"Fundraise was a success cannot claim donation\");\n        payable(msg.sender).transfer(donationAmount);\n        fundraise.amountFunded = fundraise.amountFunded.sub(donationAmount);\n        donatorToDonation[fundraiseId][msg.sender] = 0;\n        emit DonationClaimed(fundraiseId, msg.sender, donationAmount);\n    }\n    \n    function getAmountFunded(uint256 fundraiseId) external view returns(uint256) {\n        Fundraise memory fundraise = allFundraises[fundraiseId];\n        return fundraise.amountFunded;\n    }\n\n    function getFundraises(address fundraiser) external view returns(uint256[] memory) {\n        return fundraiserToFundraise[fundraiser];\n    }\n\n    function getDonations(address donator) external view returns(uint256[] memory) {\n        return donatorToFundraise[donator];\n    }\n}",
  "sourcePath": "/home/develioper/Desktop/Blockchain/Celo-Fellowship'21/celo-gram/my-app/src/contracts/Fundraising.sol",
  "compiler": {
    "name": "solc",
    "version": "0.8.1+commit.df193b15.Emscripten.clang"
  },
  "schemaVersion": "3.3.4",
  "updatedAt": "2021-08-24T07:38:52.209Z",
  "networkType": "ethereum",
  "devdoc": {
    "kind": "dev",
    "methods": {},
    "version": 1
  },
  "userdoc": {
    "kind": "user",
    "methods": {},
    "version": 1
  }
}